:10000000D80B0020B51A0000AD1A0000AF1A00008E
:10001000B11A0000B11A0000B11A0000000000007F
:10002000000000000000000000000000B11A000005
:10003000B11A000000000000B11A0000B11A00005F
:10004000B11A0000B11A0000B11A0000B11A000084
:10005000B11A0000B11A0000B11A0000B11A000074
:10006000B11A0000B11A0000B11A0000B11A000064
:10007000B11A0000B11A0000B11A0000B11A000054
:10008000B11A0000B11A0000B11A0000B11A000044
:10009000B11A0000B11A0000B11A0000B11A000034
:1000A000B11A0000B11A0000B11A0000B11A000024
:1000B000B11A0000B11A0000B11A0000B11A000014
:1000C000B11A0000B11A0000B11A0000B11A000004
:1000D000B11A0000B11A0000B11A0000B11A0000F4
:1000E000B11A00000000000000000000B11A00007A
:1000F000B11A0000B11A0000B11A0000B11A0000D4
:10010000B11A0000B11A0000B11A0000B11A0000C3
:100110000000000000000000B11A0000B11A000049
:10012000B11A0000B11A0000B11A0000B11A0000A3
:10013000B11A0000B11A0000B11A0000B11A000093
:1001400000000000000000000000000000000000AF
:10015000B11A0000B11A0000B11A0000B11A000073
:10016000000000000000000000000000000000008F
:10017000000000000000000000000000000000007F
:10018000000000000000000000000000000000006F
:10019000000000000000000000000000000000005F
:1001A000000000000000000000000000000000004F
:1001B000B11A0000B11A0000B11A0000B11A000013
:1001C000B11A0000B11A0000B11A0000B11A000003
:1001D000B11A0000B11A0000B11A0000B11A0000F3
:1001E000B11A0000B11A0000B11A000000000000AE
:1001F00000000000B11A0000B11A0000B11A00009E
:10020000B11A0000B11A0000000000000000000058
:10021000B11A0000B11A0000B11A0000B11A0000B2
:10022000B11A0000B11A0000B11A0000B11A0000A2
:10023000B11A0000B11A0000B11A0000B11A000092
:10024000B11A0000B11A0000B11A0000B11A000082
:10025000B11A0000B11A0000B11A0000B11A000072
:0C026000B11A0000B11A0000B11A000031
:1002800010B5054C237833B9044B13B10448AFF3D0
:1002900000800123237010BDB00900200000000081
:1002A000B45D000008B5034B1BB103490348AFF32D
:1002B000008008BD00000000B4090020B45D00000B
:1002C00081F0004102E000BF83F0004330B54FEA07
:1002D00041044FEA430594EA050F08BF90EA020F74
:1002E0001FBF54EA000C55EA020C7FEA645C7FEA07
:1002F000655C00F0E2804FEA5454D4EB5555B8BF2A
:100300006D420CDD2C4480EA020281EA030382EA9A
:10031000000083EA010180EA020281EA0303362D2C
:1003200088BF30BD11F0004F4FEA01314FF4801CFF
:100330004CEA113102D0404261EB410113F0004F11
:100340004FEA03334CEA133302D0524263EB4303C8
:1003500094EA050F00F0A780A4F10104D5F1200E66
:100360000DDB02FA0EFC22FA05F2801841F10001C1
:1003700003FA0EF2801843FA05F359410EE0A5F195
:1003800020050EF1200E012A03FA0EFC28BF4CF0C6
:10039000020C43FA05F3C01851EBE37101F000457C
:1003A00007D54FF0000EDCF1000C7EEB00006EEB89
:1003B0000101B1F5801F1BD3B1F5001F0CD3490813
:1003C0005FEA30004FEA3C0C04F101044FEA44526A
:1003D00012F5800F80F09A80BCF1004F08BF5FEAF1
:1003E000500C50F1000041EB045141EA050130BDD1
:1003F0005FEA4C0C404141EB010111F4801FA4F174
:100400000104E9D191F0000F04BF01460020B1FAC8
:1004100081F308BF2033A3F10B03B3F120020CDA00
:100420000C3208DD02F1140CC2F10C0201FA0CF0DE
:1004300021FA02F10CE002F11402D8BFC2F1200C43
:1004400001FA02F120FA0CFCDCBF41EA0C019040F9
:10045000E41AA2BF01EB0451294330BD6FEA040442
:100460001F3C1CDA0C340EDC04F11404C4F120022D
:1004700020FA04F001FA02F340EA030021FA04F33F
:1004800045EA030130BDC4F10C04C4F1200220FA96
:1004900002F001FA04F340EA0300294630BD21FAD4
:1004A00004F0294630BD94F0000F83F4801306BF9A
:1004B00081F480110134013D4EE77FEA645C18BF8E
:1004C0007FEA655C29D094EA050F08BF90EA020F25
:1004D00005D054EA000C04BF1946104630BD91EA1D
:1004E000030F1EBF0021002030BD5FEA545C05D120
:1004F0004000494128BF41F0004130BD14F580045F
:100500003CBF01F5801130BD01F0004545F0FE41D2
:1005100041F470014FF0000030BD7FEA645C1ABF07
:10052000194610467FEA655C1CBF0B46024650EA3E
:10053000013406BF52EA033591EA030F41F400216A
:1005400030BD00BF90F0000F04BF0021704730B5F0
:100550004FF4806404F132044FF000054FF00001C5
:1005600050E700BF90F0000F04BF0021704730B586
:100570004FF4806404F1320410F0004548BF40425B
:100580004FF000013EE700BF42004FEAE2014FEAB0
:1005900031014FEA02701FBF12F07F4393F07F4F8B
:1005A00081F06051704732F07F4208BF704793F08E
:1005B0007F4F04BF41F40021704730B54FF46074A1
:1005C00001F0004521F000411CE700BF50EA0102A4
:1005D00008BF704730B54FF000050AE050EA01024D
:1005E00008BF704730B511F0004502D5404261EBBD
:1005F00041014FF4806404F132045FEA915C3FF4FE
:10060000D8AE4FF003025FEADC0C18BF03325FEA9A
:10061000DC0C18BF033202EBDC02C2F1200300FA4B
:1006200003FC20FA02F001FA03FE40EA0E0021FA70
:1006300002F11444BDE600BF70B54FF0FF0C4CF45E
:10064000E06C1CEA11541DBF1CEA135594EA0C0F10
:1006500095EA0C0F00F0DEF82C4481EA030621EA4B
:100660004C5123EA4C5350EA013518BF52EA033586
:1006700041F4801143F4801338D0A0FB02CE4FF038
:100680000005E1FB02E506F00042E0FB03E54FF068
:100690000006E1FB03569CF0000F18BF4EF0010E60
:1006A000A4F1FF04B6F5007F64F5407404D25FEA5C
:1006B0004E0E6D4146EB060642EAC62141EA55510F
:1006C0004FEAC52040EA5E504FEACE2EB4F1FD0C51
:1006D00088BFBCF5E06F1ED8BEF1004F08BF5FEACF
:1006E000500E50F1000041EB045170BD06F0004681
:1006F00046EA010140EA020081EA0301B4EB5C042E
:10070000C2BFD4EB0C0541EA045170BD41F4801125
:100710004FF0000E013C00F3AB8014F1360FDEBF4A
:10072000002001F0004170BDC4F10004203C35DA26
:100730000C341BDC04F11404C4F1200500FA05F3A9
:1007400020FA04F001FA05F240EA020001F000424A
:1007500021F0004110EBD37021FA04F642EB0601C0
:100760005EEA430E08BF20EAD37070BDC4F10C04EA
:10077000C4F1200500FA04F320FA05F001FA04F2AE
:1007800040EA020001F0004110EBD37041F100019A
:100790005EEA430E08BF20EAD37070BDC4F12005A5
:1007A00000FA05F24EEA020E20FA04F301FA05F20D
:1007B00043EA020321FA04F001F0004121FA04F2B5
:1007C00020EA020000EBD3705EEA430E08BF20EA85
:1007D000D37070BD94F0000F0FD101F000464000BF
:1007E00041EB010111F4801F08BF013CF7D041EA41
:1007F000060195F0000F18BF704703F00046520045
:1008000043EB030313F4801F08BF013DF7D043EA15
:100810000603704794EA0C0F0CEA135518BF95EACB
:100820000C0F0CD050EA410618BF52EA4306D1D152
:1008300081EA030101F000414FF0000070BD50EA71
:10084000410606BF1046194652EA430619D094EAFB
:100850000C0F02D150EA013613D195EA0C0F05D1E5
:1008600052EA03361CBF104619460AD181EA030139
:1008700001F0004141F0FE4141F470014FF00000F1
:1008800070BD41F0FE4141F4780170BD70B54FF08C
:10089000FF0C4CF4E06C1CEA11541DBF1CEA13550C
:1008A00094EA0C0F95EA0C0F00F0A7F8A4EB0504EE
:1008B00081EA030E52EA03354FEA013100F08880E5
:1008C0004FEA03334FF0805545EA131343EA1263AE
:1008D0004FEA022245EA111545EA10654FEA002663
:1008E0000EF000419D4208BF964244F1FD0404F51C
:1008F000407402D25B084FEA3202B61A65EB030578
:100900005B084FEA32024FF480104FF4002CB6EB34
:10091000020E75EB030E22BFB61A754640EA0C00B4
:100920005B084FEA3202B6EB020E75EB030E22BFF4
:10093000B61A754640EA5C005B084FEA3202B6EB35
:10094000020E75EB030E22BFB61A754640EA9C00F4
:100950005B084FEA3202B6EB020E75EB030E22BFC4
:10096000B61A754640EADC0055EA060E18D04FEA82
:10097000051545EA16754FEA06164FEAC30343EA22
:1009800052734FEAC2025FEA1C1CC0D111F4801FEF
:100990000BD141EA00014FF000004FF0004CB6E7E8
:1009A00011F4801F04BF01430020B4F1FD0C88BF87
:1009B000BCF5E06F3FF6AFAEB5EB030C04BFB6EB92
:1009C000020C5FEA500C50F1000041EB045170BD85
:1009D0000EF0004E4EEA113114EB5C04C2BFD4EBB2
:1009E0000C0541EA045170BD41F480114FF0000E36
:1009F000013C90E645EA060E8DE60CEA135594EAB2
:100A00000C0F08BF95EA0C0F3FF43BAF94EA0C0FB4
:100A10000AD150EA01347FF434AF95EA0C0F7FF429
:100A200025AF104619462CE795EA0C0F06D152EA7D
:100A300003353FF4FDAE1046194622E750EA410661
:100A400018BF52EA43067FF4C5AE50EA41047FF472
:100A50000DAF52EA43057FF4EBAE12E74FF0FF3CD7
:100A600006E000BF4FF0010C02E000BF4FF0010CA8
:100A70004DF804CD4FEA410C7FEA6C5C4FEA430C21
:100A800018BF7FEA6C5C1BD001B050EA410C0CBF70
:100A900052EA430C91EA030F02BF90EA020F0020D2
:100AA000704710F1000F91EA030F58BF994208BF39
:100AB00090422CBFD8176FEAE37040F001007047F6
:100AC0004FEA410C7FEA6C5C02D150EA013C07D14D
:100AD0004FEA430C7FEA6C5CD6D152EA033CD3D098
:100AE0005DF8040B704700BF8446104662468C4692
:100AF0001946634600E000BF01B5FFF7B7FF0028C5
:100B000048BF10F1000F01BD4DF808EDFFF7F4FFED
:100B10000CBF012000205DF808FB00BF4DF808ED78
:100B2000FFF7EAFF34BF012000205DF808FB00BF9B
:100B30004DF808EDFFF7E0FF94BF012000205DF8BD
:100B400008FB00BF4DF808EDFFF7CEFF94BF012072
:100B500000205DF808FB00BF4DF808EDFFF7C4FF6B
:100B600034BF012000205DF808FB00BF4FEA410CB4
:100B70007FEA6C5C02D150EA013C0AD14FEA430C97
:100B80007FEA6C5C02D152EA033C02D14FF00000D4
:100B900070474FF0010070474FEA410212F5001212
:100BA00015D211D56FF47873B3EB625212D94FEAB4
:100BB000C12343F0004343EA505311F0004F23FA9E
:100BC00002F018BF404270474FF00000704750EAF3
:100BD000013005D111F0004008BF6FF000407047B0
:100BE0004FF00000704700BF844641EA000313F055
:100BF00003036DD1403A41D351F8043B40F8043B24
:100C000051F8043B40F8043B51F8043B40F8043BE6
:100C100051F8043B40F8043B51F8043B40F8043BD6
:100C200051F8043B40F8043B51F8043B40F8043BC6
:100C300051F8043B40F8043B51F8043B40F8043BB6
:100C400051F8043B40F8043B51F8043B40F8043BA6
:100C500051F8043B40F8043B51F8043B40F8043B96
:100C600051F8043B40F8043B51F8043B40F8043B86
:100C700051F8043B40F8043B403ABDD2303211D326
:100C800051F8043B40F8043B51F8043B40F8043B66
:100C900051F8043B40F8043B51F8043B40F8043B56
:100CA000103AEDD20C3205D351F8043B40F8043B26
:100CB000043AF9D2043208D0D2071CBF11F8013B24
:100CC00000F8013B01D30B8803806046704700BFEA
:100CD000082A13D38B078DD010F003038AD0C3F1F9
:100CE0000403D21ADB071CBF11F8013B00F8013BDB
:100CF00080D331F8023B20F8023B7BE7043AD9D39A
:100D0000013A11F8013B00F8013BF9D20B7803706E
:100D10004B7843708B78837060467047000000000A
:100D200000000000000000000000000000000000C3
:100D300000000000000000000000000000000000B3
:100D400090F800F06DE9024520F007016FF0000C0B
:100D500010F0070491F820F040F049804FF00004B3
:100D60006FF00700D1E9002391F840F000F108008E
:100D700082FA4CF2A4FA8CF283FA4CF3A2FA8CF3C6
:100D80004BBBD1E9022382FA4CF200F10800A4FA2D
:100D90008CF283FA4CF3A2FA8CF3E3B9D1E9042381
:100DA00082FA4CF200F10800A4FA8CF283FA4CF3B8
:100DB000A2FA8CF37BB9D1E9062301F1200182FA72
:100DC0004CF200F10800A4FA8CF283FA4CF3A2FA78
:100DD0008CF3002BC6D0002A04BF04301A4612BA86
:100DE000B2FA82F2FDE8024500EBD2007047D1E989
:100DF000002304F00305C4F100004FEAC50514F018
:100E0000040F91F840F00CFA05F562EA05021CBFE8
:100E100063EA050362464FF00004A9E74A0011D2D5
:100E200012F5001211D20DD56FF47873B3EB625244
:100E30000ED44FEAC12343F0004343EA505323FA50
:100E400002F070474FF00000704750EA013002D1C5
:100E50004FF0FF3070474FF000007047054B002205
:100E60001A6005496FF07F40086004310A6005226E
:100E70001A60704710E000E014E000E0164B1A68BA
:100E800042F000421A601A6842F400621A60134984
:100E90000A6822F4F86202F5A8620A601A6822F071
:100EA00070021A601A6822F400521A601A6842F03E
:100EB00080421A601A6822F0FE5202F180721A60B3
:100EC000074B1B6813F0400FFAD0034A136823F452
:100ED00000631360704700BF70E00F4060E00F4098
:100EE00050E00F400138054B1860043300221A60AF
:100EF000034B1B6813F4803FFAD0704714E000E006
:100F000010E000E00E4A136843F0100313600D4B2D
:100F10001B6813F0100FFAD00B4B0C4A1A600F220B
:100F200004331A6000230A490B6004310B60A1F5F9
:100F300096710B6020310B60064B1A60704700BF42
:100F400008E60F4008EA0F40204502404B434F4C53
:100F5000284502401C4502400E4A136843F008032E
:100F600013600D4B1B6813F0080FFAD00B4B0C4AA3
:100F70001A600F230B4A136000220B490A600431E8
:100F80000A60A1F596710B6020310A60074A136070
:100F9000704700BF08E60F4008EA0F402075004088
:100FA0004B434F4C24750040287500401C75004091
:100FB0000E4A136843F0020313600D4B1B6813F0D5
:100FC000020FFAD00B4B0C4A1A600F230B4A136026
:100FD00000220B490A6004310A60A1F596710B608A
:100FE00020310A60074A1360704700BF08E60F40CF
:100FF00008EA0F40205500404B434F4C2455004019
:10100000285500401C5500400E4A136843F0010368
:1010100013600D4B1B6813F0010FFAD00B4B0C4AF9
:101020001A600F230B4A136000220B490A60043137
:101030000A60A1F596710B6020310A60074A1360BF
:10104000704700BF08E60F4008EA0F402045004007
:101050004B434F4C24450040284500401C45004070
:101060000A4B1B680F2B0CDCC05C782805D02F289E
:1010700003D02D2801D02B2805D10133034A13605A
:1010800070477A2070477A20704700BFCC09002053
:101090002DE9F0478AB00546002406940794089489
:1010A00009940294039404940594A246264607E00A
:1010B0002E2B17D00AAA324402F8103C0136013414
:1010C0000F2C12DC2F192B5D7BB1452B0DD001F0BD
:1010D0001BFE3B781844427812F0040FE8D12E2B07
:1010E000EDD1E5E74FF0010AE4E70AAB1E44002228
:1010F00006F8102C164605E00AA9114401F8203C18
:10110000013201340F2C07DC2B5D452BF9D01BB1CC
:101110002E2BF1D10126EFE70AAB1A44002302F887
:10112000203CBAF1000F12D136BBBAF1000F38D013
:10113000002E3ED042464B460020224900F0E2FC01
:10114000DDE90023FFF778FA0AB0BDE8F08706A8CA
:1011500001F0B0FD074606A801F0A8FD04460D46C3
:101160003846FFF7FFF902460B4620462946FFF7AF
:10117000ADF8CDE90001D7E702A801F09BFD0746D5
:1011800002A801F093FD04460D463846FFF7EAF940
:1011900002460B4620462946FFF798F880468946C6
:1011A000C3E706A801F086FDFFF7DCF9CDE90001F1
:1011B000BEE702A801F07EFDFFF7D4F9804689461C
:1011C000B8E700BF000024402DE9F04188B0064692
:1011D000002404940594069407944B4B1C60A0468D
:1011E000274625460FE0452A44D0F25C2E2A45D0FA
:1011F0002D2A45D008A9214401F8102C01340135CD
:101200000133424A1360414B1B680F2B17DC01F07E
:101210007BFD3E4B1B68F25C1044417811F0040FDB
:10122000E1D12E2ADFD0452ADDD02D2ADBD0782A45
:1012300005D02F2A03D02B2A01D0002ADFD108ABFA
:101240001C44002304F8103C2F4B1B6803BB002FE9
:1012500051D09DF810202D2A38D10E2B22DC5A1C9B
:1012600008A9114411F8101C08A8034403F8201C15
:101270001346F2E7244A01211160B6E70127B7E7D8
:10128000B8F1000FDBD1002DD9D14FF00108B1E743
:1012900004A8FFF7FDFE02460B461046194608B0AB
:1012A000BDE8F081684601F005FD0646684601F09C
:1012B000FDFC04460D463046FFF754F922462B4606
:1012C000FFF704F8024601F10043E6E704A801F045
:1012D000F1FC064604A801F0E9FC04460D46304640
:1012E000FFF740F902460B4620462946FEF7EEFF7F
:1012F00002460B46D1E704A801F0DCFCFFF732F907
:1013000002460B46C9E700BF200C0020CC09002094
:101310002DE9F8430546204B00221A60FFF754FFE1
:1013200006460F462846FFF79BFE04462846FFF771
:101330004BFF80468946782C08D02F2C0ED02B2CC2
:101340001BD02D2C20D00020002105E002460B46AA
:1013500030463946FFF770F9BDE8F88300220023D4
:10136000FFF7D2FB10B10C4B01221A6042464B46EC
:1013700030463946FFF78AFAEEE702460B4630461A
:101380003946FEF7A3FFE7E702460B4630463946EB
:10139000FEF79AFFE0E700BF240C002038B50546B1
:1013A000002403E05020FFF79DFD0134AC42F9DB3F
:1013B00038BD00002DE9F04788B0FFF75FFDFFF76B
:1013C0004DFDFFF721FEFFF7F3FDFFF7C5FDFFF72A
:1013D00099FD00F0D3F900F014FA47E000F00EFB9D
:1013E00040E04C4B1B6808AA224412F8100C4A4AF1
:1013F00001924A4A00924A4A4A4900F016FA0134D8
:101400000F2CEEDDDFF80CA1454F464CDFF80891BC
:10141000CDF80490DFF80481CDF80080DAF80030D0
:101420003A4621462E2000F000FADAF80030CDF8D6
:101430000490CDF800803A462146F0B200F0F5F96C
:101440000EE0344B1B6808AA2A4412F8140C324AE6
:101450000192324A0092324A324900F0E6F90135EF
:10146000032DEEDD42F21070FFF798FF294C2D4D51
:101470002A4E22462946304600F05EF82368284C62
:10148000254A019200962246294600F0CEF92368AB
:10149000002BE7D000F0ACFA3046FFF739FF80466A
:1014A0008946214B1D68002D98D1FFF775FB074633
:1014B0001E4B1E78FFF756F802460B46404649463B
:1014C000FEF702FF00221A4BFFF7B6F8FFF764FBA6
:1014D00000F10903122B01D84FF0300680EAE074C6
:1014E000A4EBE07400230493059306930793114A39
:1014F00012788DF80C20ADF80D300A2204A9384678
:1015000001F0E2FB0A2203A9204601F0DDFB2C4694
:1015100076E700BF280C0020CC090020100C00202A
:10152000D4090020D0090020240C0020AC5A00006F
:1015300000005940F859000010B4704B0F241C6093
:101540001C6824F001041C6003F5E8331B6813F0E9
:10155000010F72D06A4B1B6813F0020F76D0684BF4
:101560001B6813F0040F79D0654B1B6813F0080F4C
:1015700000F0B880614B1C6844F001041C601C68DA
:1015800024F002041C6003F5E8331B6813F0010F1C
:101590006CD05B4B1B6813F0020F6FD0584B1B686D
:1015A00013F0040F72D0564B1B6813F0080F75D060
:1015B000524B1C6844F002041C601C6824F00404B4
:1015C0001C6003F5E8331B6813F0010F6ED04C4B21
:1015D0001B6813F0020F71D0494B1B6813F0040F06
:1015E00074D0474B1B6813F0080F7DD0434B19682C
:1015F00041F004011960196821F00801196003F530
:10160000E8331B6813F0010F70D03D4B1B6813F0DB
:10161000020F6DD03A4B1B6813F0040F6AD0384BA1
:101620001B6813F0080F59D0354B1B6813F0080FD7
:1016300062D0002313605A2006E00A6831238354E5
:101640000A6801320A60184610BC70470A683423E1
:1016500083540A6801320A601846F5E70A6837239E
:1016600083540A6801320A601846EDE70A6832239B
:1016700083540A6801320A601846E5E70A68352390
:1016800083540A6801320A601846DDE70A68382385
:1016900083540A6801320A601846D5E70A68302385
:1016A00083540A6801320A601846CDE70A6833237A
:1016B00083540A6801320A601846C5E70A6836236F
:1016C00083540A6801320A601846BDE70A68392364
:1016D00083540A6801320A601846B5E70123136093
:1016E0005A20B1E72A20AFE72320ADE74120ABE73E
:1016F0004220A9E74320A7E75A20A5E7FC73004052
:10170000FC43024038B50546692916D064291AD031
:10171000104C236843F0040323601520FFF7E2FB1D
:101720000D4B1D601020FFF7DDFB236823F0040341
:1017300023602C20FFF7D6FB38BD064A136823F040
:1017400008031360E4E7034A136843F008031360D7
:10175000DEE700BFFC430040FC53004010B50C46E0
:101760006921C0B2FFF7CEFF6921E0B2FFF7CAFFDF
:101770004FF43960FFF7B6FB10BD000008B51848FC
:10178000FFF7B0FB69210320FFF7BCFF41F2707047
:10179000FFF7A8FB69210320FFF7B4FF4FF4FA50CD
:1017A000FFF7A0FB69210320FFF7ACFF4FF439607E
:1017B000FFF798FB69210220FFF7A4FF0821022010
:1017C000FFF7CCFF08210020FFF7C8FF0121002010
:1017D000FFF7C4FF06210020FFF7C0FF08BD00BFD0
:1017E00000D4300010B50C466421C0B2FFF78AFF68
:1017F0006421E0B2FFF786FF4FF43960FFF772FB18
:1018000010BD08B50E210020FFF7A8FF0021082019
:10181000FFF7A4FF08BD08B5002303600B60136049
:1018200001211846FFF79AFF08BD10B50C46114676
:1018300000220A60302848D031284BD032284ED0C0
:10184000332851D0342854D0352857D036285AD090
:1018500037285DD0382860D0392863D02D2866D04D
:101860002E2869D041286CD0422800F0838043287C
:1018700000F099802A2800F0AF80232829D1002B7E
:1018800040F0B18004210020FFF768FF0021022012
:10189000FFF7A8FF2368013B23600024029AD45479
:1018A00006212046FFF75AFF21460220FFF79AFF44
:1018B00004212046FFF752FF21460220FFF792FF46
:1018C00006212046FFF74AFF03E011460320FFF7F9
:1018D00089FF10BD01210320FFF784FFF9E70221F2
:1018E0000320FFF77FFFF4E703210846FFF77AFFA5
:1018F000EFE704210320FFF775FFEAE70521032046
:10190000FFF770FFE5E706210320FFF76BFFE0E735
:1019100007210320FFF766FFDBE708210320FFF71D
:1019200061FFD6E709210320FFF75CFFD1E70D2116
:101930000220FFF757FFCCE70E210220FFF752FFEE
:10194000C7E75BB1236878220299CA542368013340
:10195000236008210720FFF745FFBAE723682B2201
:101960000299CA542368013323600B210220FFF738
:1019700039FFAEE75BB123682F220299CA5423686E
:10198000013323600F210220FFF72CFFA1E723681A
:101990002D220299CA542368013323600D210220AD
:1019A000FFF720FF95E75BB1236845220299CA54EF
:1019B00023680133236005210420FFF713FF88E724
:1019C00023682E220299CA542368013323600E2112
:1019D0000220FFF707FF7CE7236800220298C25429
:1019E00001230B6075E7039A2046FFF714FF70E7A9
:1019F00008B500210C20FFF7B1FE08BD08B5012194
:101A00000020FFF7ABFE03210420FFF7EBFE0121CE
:101A10000420FFF7E7FE0E210420FFF7E3FE0E216E
:101A20000420FFF7DFFE0F210420FFF7DBFE042177
:101A30000520FFF7D7FE00210220FFF7D3FE042187
:101A40000846FFF7CFFE09210420FFF7CBFE062151
:101A50000520FFF7C7FE09210420FFF7C3FE04217C
:101A60000846FFF7BFFE05210420FFF7BBFEFFF786
:101A7000BFFF02210420FFF7B5FE09210520FFF773
:101A8000B1FE00210220FFF7ADFE0A210520FFF77D
:101A9000A9FE05210420FFF7A5FE02210520FFF77E
:101AA000A1FE0F210420FFF79DFE08BDFEE7FEE723
:101AB000FEE7000008B50D4B0D4A03E01168196000
:101AC000043304320B498B42F8D30C480C494FF0D5
:101AD00000028842B8BF40F8042BFADB064A1368BC
:101AE00043F470031360FFF765FC08BD000000209D
:101AF000B45D0000B009002088ED00E0B0090020CE
:101B0000540C00202DE9F04FDFF808938DB0064605
:101B10000F4614461D4600F07FF999F90080B8F190
:101B2000FF3FCDE9000136D022462B46204629460C
:101B3000FFF71CF8834670BB32463B4630463946B9
:101B4000FFF714F8002282460023002840F0A0800E
:101B500030463946FEF7D8FF10B300220023204656
:101B60002946FEF7D1FF8346002867D00122A24B09
:101B7000029200210022CDF828A0CDE90467CDE92A
:101B80000645CDE908120393B8F1000F41D09B4CF4
:101B90000023CDE90034DDE900010DB0BDE8F08F90
:101BA000DDE9000100F060FF8046002800F08B8036
:101BB0004FF0000A4FF0000B52465B46DDE9000192
:101BC000FEF7A2FF0028E6D03046394600F04CFF71
:101BD0000028E0D02046294600F046FF0028DAD051
:101BE00099F90030844A039204210022022BCDE9A6
:101BF0000467CDE90645CDE908AB02910A9203D00E
:101C000002A800F037FF50B901F058F82223036012
:101C100005E002A800F02EFF002800F098800A9B43
:101C20001BB101F04BF80A9B0360DDE90834CDE9F4
:101C30000034DDE900010DB0BDE8F08F20462946F3
:101C400000F012FF0028A6D00022002320462946DB
:101C5000FEF764FF00289ED0674A99F90030CDF85E
:101C600028B00121CDE90467CDE90645CDE902128E
:101C7000002B71D062490020022BCDE908016FD101
:101C800001F01CF8212303600A9B002BCDD0C8E78C
:101C900020462946FEF738FF00283FF47CAF012399
:101CA0000293564B5449CDF828B00022B8F1020FE8
:101CB000CDE90467CDE906450391CDE90823A8D114
:101CC000CDE9002367E73046394600F0CDFE002815
:101CD0003FF46EAF2046294600F0C6FE00283FF4D0
:101CE00067AFDDE9002310461946FEF73FFF99F97B
:101CF00000A0002866D10323DFF8FCC00A90294623
:101D00002046029300223F4BCDF80CC0CDE906459A
:101D1000CDE90467FEF790FC002204460D4600233F
:101D200030463946BAF1000F20D1374F4FF06046A8
:101D3000CDE90867FEF7F2FE18BB02A800F09AFE94
:101D40000028A1D100F0BAFF222303609CE700F035
:101D5000B5FF2123036062E700230024CDE90834A6
:101D600002A800F087FE00288ED189E7274F0026C1
:101D7000CDE90867FEF7D2FEA0B9BAF1020FE1D0B3
:101D8000DBE72046294600F07DFE22462B46FEF783
:101D9000BBFEA0B91E4B99F900A04FF06042CDE9FF
:101DA0000823EAE72046294600F06CFE22462B462F
:101DB000FEF7AAFE18B9124B0022CDE9082399F9C3
:101DC00000A0DAE701220C4BCDF828800292CDE981
:101DD0000467CDE906450393BAF1000FBCD0002299
:101DE000002310461946FEF751FDBAF1020FCDE966
:101DF00008013FF445AFB3E7FC5900000000F03F95
:101E00000000F0FF0000E03FFFFFEF470000F07F21
:101E1000FFFFEFC7000000202DE9F04F23F0004541
:101E200055EA020493B00DD0794E21F00044B4423B
:101E30000F4682460FDD04F1404404F5801454EA55
:101E40000A035BD1734C0023CDE90034DDE90001C6
:101E500013B0BDE8F08F984694464ED0B542EADC08
:101E60006B4EB54266D0002F8B468146CDE90223EA
:101E700064DB0026BCF1000F0ED1654B9D4246D0BD
:101E8000644B9D4200F09780B8F1804F00F0B28023
:101E9000614B984500F0CC834846594600F0E0FD80
:101EA000CDE90001BAF1000F06D1002C60D0594BEA
:101EB00027F040429A425BD0FF0F013F56EA0703EA
:101EC00000F08280554B9D4240F3B08003F10473D3
:101ED0009D4240F34184524B9C4240F38280B8F1D2
:101EE000000F40F3828048A3D3E90023104619462F
:101EF000FEF7A2FBCDE90001A8E728B1494813B0DD
:101F0000BDE8F04F00F0B8BDA542F7DCA8E704F14A
:101F1000404303F5801353EA0A0393D0404B9C429D
:101F200040F39083B8F1000F5FDBDDE90234CDE9C7
:101F300000348BE7BCF1000F95D07CE73A4B9D4213
:101F400037DCA3F154739D4293DD2B15A3F2FF33CD
:101F5000142B40F3E983C3F134032CFA03F202FAA1
:101F600003F3634585D102F00102C2F1020681E765
:101F7000B8F1000F07DADDE9002300202549FEF75C
:101F800085FCCDE90001002FBFF660AF04F14044AD
:101F900004F5801454EA060300F03C84012E7FF41B
:101FA00055AFDDE90045224605F10043CDE90023A8
:101FB0004CE702265EE7B8F1000FC0F24F834846B7
:101FC0005946CDE9000141E74A4648465B46594635
:101FD000FEF77AF902460B46FEF758FCCDE9000100
:101FE00034E7B8F1000FFFF67EAF00230024CDE9FF
:101FF00000342BE74A4648465B465946FEF71CFB31
:10200000CDE9000122E700BF9C7500883CE4377EE3
:102010000000F07F0000F03F0000E03F0000E041E2
:10202000FFFFEF3FAC5A0000FFFF3F43B4F5801FB6
:1020300080F28F83DDE900010022CF4BFEF7FCFA2E
:10204000CDE900010C466FF0340C2315CB4DC4F3E1
:102050001302A3F2FF3342F07F5403EB0C01AA42B8
:102060000B9144F4401440F36F83C54B9A4240F304
:10207000F38300220023CDE9082301310B91A4F55D
:102080008014CDE91023BF4B0022CDE906230025A3
:10209000DDE90001DDE9062321468246FEF714F959
:1020A000A346DDE906238046894650462146CDE910
:1020B0000CABFEF70BF902460B460020B149FEF7C8
:1020C000E5FB0A460146CDE90E1213464946024693
:1020D0004046FEF7B1FA631043F0005382468B4648
:1020E00003F500238C46CDE904AB5919D3460023F0
:1020F000CDE900BC0093DDE900AB002004460D46AD
:1021000002460B4650465946FEF796FA02460B46E3
:1021100040464946FEF7D8F8DDE906238046894661
:1021200020462946FEF7D0F802460B46DDE90C01B1
:10213000FEF7CAF852465B46FEF77EFA02460B46A9
:1021400040464946FEF7C0F8DDE90E23FEF774FA73
:10215000DDE90445CDE9060122462B462046294605
:10216000FEF76AFA72A3D3E9002304460D46FEF790
:1021700063FA71A3D3E90023FEF7A8F822462B46A1
:10218000FEF75AFA6EA3D3E90023FEF79FF8224622
:102190002B46FEF751FA6CA3D3E90023FEF796F81D
:1021A00022462B46FEF748FA69A3D3E90023FEF73F
:1021B0008DF822462B46FEF73FFA67A3D3E90023AA
:1021C000FEF784F82246804689462B46204629465B
:1021D000FEF732FA02460B4640464946FEF72CFA15
:1021E000524604460D465B46DDE90401FEF76EF8F3
:1021F000DDE90623FEF720FA22462B46FEF766F8B5
:102200005246804689465B4650465946FEF714FAC8
:1022100000225D4BCDE90C01FEF758F842464B46D3
:10222000FEF754F800980D46044622462B465046C9
:102230005946FEF701FA002282468B46524B204651
:102240002946FEF741F8DDE90C23FEF73DF802468A
:102250000B4640464946FEF737F8DDE90423FEF712
:10226000EBF92246804689462B46DDE90601FEF75A
:10227000E3F902460B4640464946FEF727F88046FA
:10228000894602460B4650465946FEF71FF800980D
:1022900033A3D3E9002304460D46FEF7CDF9524699
:1022A000CDE904015B4620462946FEF70DF80246BB
:1022B0000B4640464946FEF707F82BA3D3E9002317
:1022C000FEF7BAF92AA3D3E90023804689462046BF
:1022D0002946FEF7B1F902460B4640464946FDF74E
:1022E000F5FFDDE91023FDF7F1FF80460B988946E5
:1022F000FEF738F9424682468B464B46DDE904013B
:10230000FDF7E4FFDDE90823FDF7E0FF52465B46F9
:10231000FDF7DCFF009852465B4604460D46FDF78C
:10232000D3FFDDE90823FDF7CFFFDDE904232DE02E
:10233000EF4E454A287ECA3F65DBC9934A86CD3FAA
:1023400001411DA96074D13F4D268F515555D53F90
:10235000FFAB6FDBB66DDB3F033333333333E33F28
:10236000000000E009C7EE3FFD033ADC09C7EE3F7D
:10237000F5015B14E02F3EBE000040438E98030041
:1023800079B60B000000F03F00000840FDF79CFF0D
:102390000B46024649464046FDF796FF013E56EA87
:1023A000070382468B46DDE9020114BFD84BD94BA7
:1023B0000022CDE9042302460B46CDE90023002389
:1023C0000093DDE9006732463B46FDF77DFF22467C
:1023D0002B46FEF731F9DDE9022380468946504657
:1023E0005946FEF729F902460B4640464946FDF795
:1023F0006DFF3246804689463B4620462946CDE958
:102400000289FEF719F90B46024606460F4640467A
:102410004946FDF75BFFC04B994204460D468A468C
:1024200040F3268101F13F4303F5E003034340F00D
:10243000F781A3A3D3E90023DDE90201FDF746FFFD
:102440003246804689463B4620462946FDF73CFFFA
:1024500002460B4640464946FEF77EFB002840F008
:10246000DF81A8464FEA2853A3F2FE324FF48013CF
:1024700013415344C3F30A52A84DA2F2FF3215414F
:10248000C3F3130423EA05010020C2F1140B44F442
:102490008014BAF1000F02460B4644FA0BFB30469B
:1024A0003946B8BFCBF1000BFDF70EFF02460B46D5
:1024B00006460F46DDE90201FDF708FF4FEA0B5A19
:1024C0000D46002480A3D3E9002320462946FEF7C9
:1024D000B3F83246804689463B4620462946FDF7FA
:1024E000F3FE02460B46DDE90201FDF7EDFE78A39F
:1024F000D3E90023FEF7A0F877A3D3E9002306462B
:102500000F4620462946FEF797F802460B4630460E
:102510003946FDF7DBFE06460F4602460B464046AF
:102520004946FDF7D3FE42464B4604460D46FDF7AD
:10253000CBFE02460B4630463946FDF7C5FE224625
:10254000804689462B4620462946FEF775F864A347
:10255000D3E9002306460F46FEF76EF862A3D3E9DF
:102560000023FDF7B1FE32463B46FEF765F860A357
:10257000D3E90023FDF7AAFE32463B46FEF75CF89E
:102580005DA3D3E90023FDF79FFE32463B46FEF7ED
:1025900053F85BA3D3E90023FDF798FE32463B4690
:1025A000FEF74AF802460B4620462946FDF78CFE08
:1025B00006460F4602460B4620462946FEF73CF8E3
:1025C0000022CDE900014FF0804330463946FDF747
:1025D0007BFE02460B46DDE90001FEF757F9424655
:1025E00006460F464B4620462946FEF725F842464A
:1025F0004B46FDF76BFE02460B4630463946FDF76B
:1026000063FE22462B46FDF75FFE02460B46002086
:102610003F49FDF759FE8A44BAF5801FC0F22D816B
:102620005146DDE90423FEF707F8CDE900010DE48A
:10263000002FFFF631AC4846594613B0BDE8F04FC5
:1026400000F04CB9B8F1000FBFF6CFACDDE90234B1
:10265000009304F100430193FFF7F8BB4A465B4641
:1026600000202B49FEF712F9CDE90001FFF7EEBB80
:102670002B4B21F00048984540F3E280294B0B4456
:1026800003430AD132463B46FDF71EFEDDE9022335
:10269000FEF758FA00283FF4E5AE1BA3D3E9002368
:1026A000DDE90401FDF7C8FF17A3D3E90023FDF717
:1026B000C3FFCDE90001FFF7C9BB00BFAFF3008046
:1026C000FE822B654715973C00000000432EE63F35
:1026D000EF39FAFE422EE63F396CA80C615C20BE51
:1026E000D0A4BE726937663EF16BD2C541BDBB3E18
:1026F0002CDE25AF6A56113F93BDBE166CC1663FF6
:102700003E5555555555C53F59F3F8C21F6EA501A5
:102710000000F03F0000F0BFFFFF8F40FFFF0F0001
:10272000FFCB904000346F3FBCF1000F40F0918030
:10273000C3F1140345FA03F202FA03F3AB4200F0CB
:10274000A0806646FFF79CBB00220023CDE908234A
:1027500097E44FF0000C78E45B4B9C427FF741AC70
:102760005A4B9C423FF7BBABDDE900010022574BBF
:10277000FDF7AAFD46A3D3E9002304460D46FDF765
:102780005BFF45A3D3E9002382468B4620462946BA
:10279000FDF752FF0022CDE900014D4B20462946AE
:1027A000FDF74AFF02460B463DA1D1E90001FDF7C6
:1027B0008BFD22462B46FDF73FFF02460B460020CD
:1027C0004449FDF781FD2246804689462B46204636
:1027D0002946FDF731FF02460B4640464946FDF7C4
:1027E0002BFF31A3D3E90023FDF726FF02460B465A
:1027F000DDE90001FDF768FD02460B46804689468B
:1028000050465946FDF762FD002004460D465246EB
:102810005B46BBE5DDE9002310461946FFF7D8BB50
:1028200023A3D3E90023DDE90401FDF705FF20A37D
:10283000D3E90023FDF700FFCDE90001FFF706BB58
:10284000244B98453FF70EAEDDE9002392469346B0
:1028500037E60026FFF720BB17A3D3E90023CDE915
:10286000082317A3D3E90023CDE910231A4B002234
:102870004FF48025CDE906230AE45A4600F090F98A
:10288000CFE602F00102C2F10206FFF7F9BA00BF7B
:10289000000000604715F73F44DF5DF80BAE543E83
:1028A000555555555555D53FFE822B654715F73F74
:1028B0009C7500883CE4377E0000004003B8E23F8E
:1028C00006D0CF43EBFD4C3EFEFFEF3F0000F03F54
:1028D0000000D03F0000E03F0000F83F5F4A8A431D
:1028E0002DE9F0410D46074600F0948000290B4683
:1028F0000446064654DD0F1500F0A780C3F313030A
:10290000A7F2FF3743F48013F20FF80702EB4303FB
:102910004FEA460503D5ED0F05EB4303B50000264E
:102920007F10B44616224FF400110CEB01009842C0
:102930004FEAD5744FEA450503DC1B1A00EB010C86
:102940000E44013A04EB43034FEA5101EDD1104626
:10295000964620244FF0004209E052D05B00013C33
:1029600003EBD5734FEA52024FEA450537D0634572
:1029700002EB0E01F1DD002901EB020E0ADBE0465D
:10298000A3EB0C03A94288BF03F1FF336D1A104477
:10299000C446E3E7BEF1000FF1DB0CF10108EFE7FD
:1029A00021F00042024329D0002945D10146CA0A3C
:1029B000153B4905002AFAD012F4801001D048E0F6
:1029C00030465200D40200F10106F9D5C6F12004C8
:1029D00001FA06F6E1401F1A41EA02038EE72B4393
:1029E00024D14408731003F17F53F20703F5001359
:1029F00048BF44F0004403EB075127463846BDE882
:102A0000F081A942AAD8002901EB020EC2DB984648
:102A10000023BBE702460B46FDF70EFE3A462B4667
:102A2000FDF754FC07463846BDE8F081411C16BF4F
:102A3000421C01365408D5E70246FDF745FC024624
:102A40000B46FDF723FF0746D8E71A4621463B46CB
:102A5000B2E70E4620244FF0FF30BBE70000F07FC6
:102A600021F000431946704741F0004101F5801004
:102A7000C00F70470020704700200149704700BF19
:102A80000000F87F2DE9F041C1F30A57A7F2FF35A6
:102A9000132D82B002460B460C464FEAD17806460B
:102AA00033DC002D4EDB3B49294103EA0100104392
:102AB00026D049080B4052EA03060CD04FF480237D
:102AC000132D24EA010143FA05F444EA01040CBF82
:102AD0004FF000460026304901EBC8082346D8E9EC
:102AE0000045324620462946FDF7F0FBCDE90001BE
:102AF00022462B46DDE90001FDF7E6FB02460B46C8
:102B00001046194602B0BDE8F081332D07DDB5F55A
:102B1000806FF5D1FDF7DAFB02460B46F0E7A7F22E
:102B200013474FF0FF31F9400842E9D04908084205
:102B3000D1D04FF0804320EA010143FA07F741EA80
:102B40000706C8E721F000410143D9D0C3F31301C0
:102B500001434E42104D0E43360B05EBC8055C0C8D
:102B600006F40023D5E90067640443EA04010B4638
:102B700030463946FDF7AAFBCDE9000132463B4617
:102B8000DDE90001FDF7A0FB21F00041024641EA2A
:102B9000C873B5E7FFFF0F00005A000000000000F7
:102BA000F8B5C1F30A5304460D460E4617460BBB53
:102BB00021F00046034633431BD0354B0022FDF77E
:102BC0003BFD344B9F4204460D4635DBC1F30A53AF
:102BD0000E46363B3B4440F2FE72934232DC002B01
:102BE00011DD26F0FF4626F4E00646EA03552046AE
:102BF0002946F8BD40F2FF729342EBD102460B46E4
:102C0000FDF764FBF8BD13F1350F28DA4CF25033B1
:102C10009F4222462B460ADD19A1D1E9000100F0AE
:102C20003DF817A3D3E90023FDF706FDF8BD16A173
:102C3000D1E9000100F032F813A3D3E90023FDF736
:102C4000FBFCF8BD22462B460DA1D1E9000100F0A6
:102C500025F80BA3D3E90023FDF7EEFCF8BD26F021
:102C6000FF4626F4E006363346EA03552046294659
:102C70000022094BFDF7E0FCF8BD00BFAFF3008078
:102C80009C7500883CE4377E59F3F8C21F6EA5019D
:102C900000005043B03CFFFF0000903C03F00043B5
:102CA00021F0004242EA0301704700BF002101F019
:102CB00053B800BF0A22002101F0F2B8014B186896
:102CC000704700BF04000020931E222B15D80A2A4B
:102CD00010B50B4605D00C46194601F0F7F8204612
:102CE00010BD0028F7DA2D2403F8014B40420C46B2
:102CF000194601F0EBF8204610BD0020087070471F
:102D0000D0F8EC00704700BF044B054A1B685B6BB2
:102D1000002B08BF1346D3F8EC00704704000020D6
:102D20003004002082B049B15AB16BB113780B6006
:102D30001278101C18BF012002B0704701A9002AA8
:102D4000F3D1104602B070476FF00100F4E700BF06
:102D5000F0B4860743D0541E002A3ED0CAB20346C0
:102D600002E014F1FF3438D303F8012B9D07F8D1AA
:102D7000032C2BD9CDB245EA05250F2C45EA054594
:102D800016D9A4F110073F0903F1200606EB071638
:102D900003F1100242E9045542E902551032B242F1
:102DA000F8D104F00F040137032C03EB07130DD9FE
:102DB0001E462246043A032A46F8045BFAD8221F2C
:102DC00022F003020432134404F003042CB1C9B20C
:102DD0001C4403F8011B9C42FBD1F0BC7047144615
:102DE0000346C5E72DE9F0410F46904601F0B0FFDC
:102DF00004460D46B8F1000F11D0C7F30A53C3F1D2
:102E00006B03002B0BDD1B0503F17F55002405F53B
:102E1000401522462B46FDF70FFC04460D46204682
:102E20002946BDE8F08100002DE9F04F1C46A3B013
:102E30000023074620460E4607921E9301F08EFCA3
:102E40000023002205460068CDE90423FDF778FF42
:102E50001D96834633461A4613F801ABBAF12D0F7F
:102E600000F2F780DFE81AF05B00F500F500F500EE
:102E7000F500F500F500F500F500C700C700C70034
:102E8000C700C700F500F500F500F500F500F500F6
:102E9000F500F500F500F500F500F500F500F5008A
:102EA000F500F500F500F500C700F500F500F500A8
:102EB000F500F500F500F500F500F500F5006800F7
:102EC000F500C4005A46484602F098F886460028A5
:102ED00040F05C831D9B03EB0B011D9113F80B303D
:102EE000302B724606D101311D910B78302B02F147
:102EF0000102F8D0A3F13101082940F2BC85652B0D
:102F00004FF0000B40F03C835D46D8464FF0010A7D
:102F1000002A40F04C81099B002B40F04881079B20
:102F20000BB1079B1E604FF0000A4FF0000B50469C
:102F3000594623B0BDE8F08F0023089302F1010940
:102F4000CDF8749092F801A0BAF1000FE7D0BAF171
:102F5000300F00F0858000230993AAF13003DAB224
:102F6000092A2968AED80025A8462C4648460130D3
:102F70001D90082C90F800A008EB8802CABF05EB52
:102F8000850503EB420803EB4505AAF13003DAB2ED
:102F9000092A04F10104EAD95A4602F02FF88646BC
:102FA00058B30022534696469246A346652B6ED0F0
:102FB000452B6CD00021002C40F0B8801AB9099A3A
:102FC000002A00F085824FF0000A4FF0000B079AAC
:102FD0000AB11D9B1360089B002BA8D051460BF132
:102FE00000438A469B465046594623B0BDE8F08FC1
:102FF00001230893A2E71D932DE71D9B03EB0B0212
:103000001D9213F80B300246A346A3F130010929A3
:1030100000F23382531C8A46DDF874C0002900F0A8
:103020008C86012B9E4400F08586224405E04FEA01
:10303000400893421C4600F08184082C04F10103EF
:1030400008EB8800F3DD102BDCBF05EB85056D0078
:10305000EFE70023BAF1300F914608937FF47BAF7E
:1030600099F80130582B00F00B82782B00F0088281
:103070004B4601331D9393F800A0BAF1300FF8D0FE
:103080009946BAF1000F9ED00123099365E7002C01
:103090003FF43EAF1D9E731C1D9373782B2B00F0E5
:1030A0000E822D2B00F0118200210A91A3F1300134
:1030B00009297ED8302B05D11D9901311D910B783E
:1030C000302BFAD0A3F1310108293FF673AF1D99D7
:1030D0000D91481C303B1D900C934B78A3F1300CA4
:1030E000BCF1090F0FD80C9901301D9001EB810143
:1030F00003EB41010378A3F1300CBCF1090FA1F1FE
:103100003001F1D90C910D99401A082800F3298457
:103110000C9944F61F608142A8BF01460A98002816
:103120003FF449AF4942002C3FF448AFA1EB0E03F6
:1031300040460C93FDF706FABBF1000F08BFA3460B
:10314000102CA246A8BF4FF0100A092CCDE90401AB
:1031500032DC0C9B002B27D00C9B40F37B84162B7E
:1031600000F39B84404901EBC301D1E90001DDE993
:103170000423FDF761FA82468B4628E71DA83B49E8
:1031800001F004FA00283FF4CAAE1D9B3849013B08
:103190001DA81D9301F0FAF910B91D9B01331D9371
:1031A000344D0023CDE90435DDE904AB0FE70024FD
:1031B00070E71D960021FEE62B4B03EBCA0353E993
:1031C0001223FDF739FACDE904012846FDF7BAF9D3
:1031D00002460B46DDE90401FDF778F80F2CCDE936
:1031E0000401B6DD0C9BA4EB0A0A9A44BAF1000F65
:1031F00040F302831AF00F030AD01B4901EBC3010D
:10320000D1E90001DDE90423FDF716FACDE9040157
:103210003AF00F0A0CD0BAF59A7F40F3D983154BD8
:103220000593002222230492DDE904AB3B60CEE645
:1032300000230993CDF8008023465A464946384674
:1032400001F002FB1190002800F0AA810C9A0021E5
:10325000002AC2F10003A8BF0B460D9322EAE273D5
:10326000884612938B46C7E0E05C0000245A0000B9
:10327000285A00000000F07FD21A1F2AA4EB020493
:1032800000F32982012393400E93002313932544D6
:10329000099B3444A6421D443346A8BF2346AB4293
:1032A000A8BF2B46002B02DDE41AED1AF61A0D9B7F
:1032B000002B40F0A381002C00F3B9810C9B002B64
:1032C00000F3DC81002D00F3E581002E08DD41468E
:1032D0003246384601F054FC8046002800F0D78181
:1032E0004A461E99384601F0BDFC8346002800F08E
:1032F000CE810026C368C6604146109301F096FC5B
:10330000B042C0F24284059D00F007844146584611
:1033100001F0F8FD00224FF08043CDE90E01FDF7EA
:1033200007FC002800F0C081109B002B00F0E0811A
:10333000AB4C0023CDE90E34A94B1393B246A94CF4
:10334000A94B05EA04069E4200F0F481099B4BB3A9
:10335000B6F1D46F26D8139C504621469EA3D3E9DC
:103360000023FDF7E5FBC0B150462146FDF756FDB1
:10337000002800F0B383FDF7E5F882461391109B17
:10338000002B40F0A683139BCDF860A003F100430F
:103390001993DDE91834CDE90E340F9B03F1D663A0
:1033A0009B1B0F93DDE90A01DDE90E4501F0D0FC1E
:1033B00002460B4620462946FDF73EF9DDE90A2381
:1033C000FCF784FFCDE904010C46099B23B9854B2A
:1033D00023409E4200F0EA811E99384601F0EAF946
:1033E0004946384601F0E6F94146384601F0E2F92F
:1033F0005946384601F0DEF9119C3846616801F003
:10340000B3F98146002800F042812269023204F1BA
:103410000C0192000C30FDF7E7FBDDE9043420A835
:103420001FA9CDE90A341A46CDE9001023463846D3
:1034300001F010FD1E90002800F0028101213846A5
:1034400001F09EFA8046002800F021811F9B002B8E
:10345000C0F23D810D9A129D9E180999209C634AE5
:103460005B1A2344013B9342C4F13604FFF604AFD8
:103470000023139301230E9309E74FF0010A95E50A
:10348000089A02941EABCDE900321DA91FAB584A21
:10349000384600F0EBFD10F0070504463FF493AD0D
:1034A000062D40F06282079A09F10103002A3FF4D9
:1034B0003AAD13604FF0000A4FF0000B37E50023E0
:1034C0000A93B31C1D93B378F0E501230A93F8E740
:1034D000BAF1000F7FF423AD493B252B3FF61FAD1A
:1034E00001A252F823F000BF7D3100001F2F000021
:1034F0001F2F00001F2F00001F2F0000B3350000FA
:103500001F2F00001F2F00001F2F00001F2F000083
:103510001F2F00001F2F00001F2F00001F2F000073
:103520001F2F00001F2F00001F2F00001F2F000063
:103530001F2F00001F2F00001F2F00001F2F000053
:103540001F2F00001F2F00001F2F00001F2F000043
:103550001F2F00001F2F00001F2F00001F2F000033
:103560001F2F00001F2F00007D3100001F2F0000C3
:103570001F2F00001F2F00001F2F0000B335000079
:103580005C465D46D8464FF0010A11E54FF0000B4E
:1035900053465D46D8465A46DE465C46DA4605E561
:1035A000104B0593119B04932223DDE904AB3B6090
:1035B0000DE51DA80F4900F0E9FF00283FF4AFAC6E
:1035C0001D9B1B78282B00F089830B4C0023CDE931
:1035D0000434E9E5AFF300800000C0FFFFFFDF41E6
:1035E0000000F03F0000F07F0000E07F02FCFFFFE2
:1035F000345A0000305A00000000F8FF41461A46D5
:10360000384601F06DFA8046002840D001461E9AE7
:10361000384601F0BFF9002839D010901E9938467D
:1036200001F0C8F8109B1E93002C7FF747AE22468E
:103630001E99384601F0A4FA1E9000287FF43EAE91
:103640005C46B34B059300220492DDE904AB2223D0
:103650003B600146384601F0ADF84946384601F076
:10366000A9F84146384601F0A5F81199384601F00D
:10367000A1F82146384601F09DF8A8E44946129A7F
:10368000384601F02DFA814600287FF41BAE5C46D7
:103690001E98D6E749462A46384601F071FA814617
:1036A00000287FF412AEF2E79A4BDDE90E0100220A
:1036B000FCF7C2FF109B13918246A3B901F10043AE
:1036C00014901593DDE91434CDE90E3437E6129ADF
:1036D0000D9ED51AC1E6904AD31A012202FA03F3CD
:1036E00013930E92D3E5139B0246CDE91423E9E729
:1036F000049B002B40F0EE80C5F31303002B4CD14C
:103700000022864BDDE90E01FDF708FA002840F0A3
:10371000FB81804BDDE90E010022FCF78DFF01F1FA
:10372000004382461A9013911B93DDE91A34CDE9C8
:103730000E3404E6A5F154730593DDE90423DDE9B5
:103740000E01CDE9040110461946CDE90E2301F022
:10375000FFFA02460B46DDE90401FCF76DFFDDE9E7
:103760000E23FCF7B3FD01EA04030A46CDE9040188
:10377000DDE90A01DFF8B8C104460D466345CDE92D
:10378000164540F2D780664B994200F0AB81644900
:103790004FF0FF33CDE904311EE6624C0023CDE942
:1037A0000E3400239A465D4B1393C8E5139D504693
:1037B0002946FDF7F1F9FCF7D5FE0B4602462946EE
:1037C0005046FCF781FD109B05460E46002B6DD13F
:1037D000049B002B6AD1C4F31304002C66D146A3CA
:1037E000D3E90023FDF79AF900283FF4F5AD5C46D4
:1037F0001E98DDE904AB2CE73FF41AADCAF10005D1
:1038000015F00F020AD0484B03EBC203DDE90401B7
:10381000D3E90023FDF73AF8CDE904012D113FF477
:1038200007AD1F2D3ADC15F01003099340F0FC8121
:10383000002D40F3FF81DDE904013C4E0023EA073F
:1038400004D5D6E90023FCF7F7FE01236D1006F13D
:103850000806F4D1002B40F07582099B002B00F084
:10386000E981DDE90412C2F30A53C3F16B03002BB3
:1038700011460ADD1F2B40F329820022342B0492CB
:1038800040F34D824FF05C73059300220023DDE985
:103890000401FDF739F900283FF4CCAC22233B604A
:1038A0004FF0000A4FF0000BFFF791BB14A3D3E9D0
:1038B000002328463146FDF731F9002897D12846E4
:1038C000314611A3D3E90023FDF746F900283FF460
:1038D00083AD8CE7049B012B7FF45FAF002D7FF459
:1038E0005CAF5C4622233B601E984FF0000A4FF00D
:1038F000000BAEE6AFF300809535A094FFFFCF3FFD
:103900009535A094FFFFDF3F35E5AF350000E03F80
:103910000000F07F0000E03FE2FBFFFF0000F03F0F
:10392000FFFFEF7F0000F0BFE05C0000605A000086
:10393000FFFF9F7C02F15474059446E55C1C082B44
:1039400040F3A580102C00F3DD8005EB850501EB2D
:10395000450500220CF101031D939CF80130FFF78F
:1039600054BB44F61F61FFF7D9BB1E9A3AB135210B
:1039700020A801F0F5FA38461E9900F01BFF013D22
:10398000042D06D8DFE805F0180C03111800AB4B26
:103990000593260742BF059B43F00043059303E4CC
:1039A000209B0493219B0593F3E74FF0FF336FF0C7
:1039B0000047CDE90437ECE7DDE920131F9A0491B5
:1039C00002F2334223F4801343EA02530593E0E703
:1039D0004FEA2A15012D9A4B40F31781DDE90401C6
:1039E0001E46099300239A4615F0010F0AF1010AB9
:1039F0004FEA650504D0D6E90023FCF71DFE01233C
:103A0000012D06F10806EFD1002B40F09881059BAF
:103A10008C4EA3F154730593099B03EBCA01D1E9C2
:103A20000001DDE90423FCF707FE844A01EA0203F2
:103A3000B342CDE904015CD8A2F15872934240F23E
:103A4000DD80814B0593002309934FF0FF330493EE
:103A5000FFF7F0BB13F11602FFF6C4AB7B4FA7EBE9
:103A6000C307DDE90401D7E90023FCF70FFF824615
:103A70008B46FFF7ACBADDF874904FF0000BA3F162
:103A8000300A02F1010ECC46D8465D46012408EB0F
:103A900088080AEB480800225CE70C9EC4F1250365
:103AA000B342FFF69FAB694DC4F10F0405EBC401AF
:103AB000341BDDE90423D1E9000105EBC405FCF763
:103AC000BBFDD5E90023FCF7B7FD82468B46FFF727
:103AD0007EBA139B5246CDE918235AE45C4A1392EE
:103AE00082464CE4DDF828A0BAF1FF3F7FF44FAEE8
:103AF000CDE50023049305922223DDE904AB3B606E
:103B0000FFF765BA002225E7524B534C139300236D
:103B1000CDE91A34109B9A4607E610994F4A5C4645
:103B2000C5F31303DDE90AAB002972D0934200F01C
:103B30009980139B002B72D02B4210D0109B099AB6
:103B4000DDE90401002B00F0AC80FFF74BF90246E1
:103B50000B4650465946FCF7B9FB82468B46099BFB
:103B60008BB13F4A0023CDE9163250465946DDE974
:103B70001623FCF761FD82468B4621B918B9222332
:103B80001E983B6065E51E9863E5109B58465C46B1
:103B9000DDE90AAB002BE2D1DDE904120029DED118
:103BA000C2F31303002BDAD122F000431B0D1B05D7
:103BB000B3F1D66FD3D9436913B90369012BCEDDB5
:103BC00021460122384600F0DBFF4146044601F061
:103BD0002DF80028C3DDDDE90401099B0A46002B0E
:103BE00000F08E8021F000431B0D1B05B3F1D66F52
:103BF00000F38680B3F15C7FB3DC73E601F15473AC
:103C0000059300230993FFF715BB09934FF0000AB2
:103C1000FDE6002B8DD1049B002B8AD1DBE70E9BA8
:103C2000049A13429BD089E76A23002D09933FF73A
:103C300002AE16E60023099327E600BF0000F07FDE
:103C4000B85C00000000A07CFFFFEF7FE05C00009C
:103C50000000F03F0000E03F0000E0BFFFFF0F006A
:103C600000005039099B04996BB3384B2B40B3F1DA
:103C7000D46F28D81B0DC3F16B034FF0FF3202FA4B
:103C800003F399427FF455AF314B9D424FD02F4BF8
:103C90002B4003F58013059300230493DDE904AB67
:103CA0005DE7FFF79FF802460B4650465946FCF782
:103CB0000BFB0022002382468B46FCF725FF0028E1
:103CC0007FF410AE4BE74FF0FF33DAE74FF0FF32EF
:103CD00002FA03F3049A1A400492D6E51DA820AA1A
:103CE0001C4900F06BFC05287FF46FAC219B43F06E
:103CF000FF4343F4E0030593209B0493FFF754BA7A
:103D0000124B1340A3F580136FEA13536FEA03536A
:103D100005934FF0FF330493DDE904AB1FE7203B2D
:103D20004FF0FF3202FA03F30B400593ADE501318A
:103D3000ADD1ADE42346013401E61A460AE6CDE9E9
:103D4000040164E6CDE9040187E500BF0000F07FCF
:103D5000FFFFEF7F485A0000064B30B41C68064D49
:103D6000636B0A46002B08BF2B460146204630BC39
:103D7000FFF75AB804000020300400202DE9F84F66
:103D80000E468046174699460D4600E025462C46CD
:103D90000A9814F801BBFEF7B3FF5844417811F0BC
:103DA0000801F3D1BBF12D0F57D0BBF12B0F04BF8E
:103DB00095F801B0AC1CB9F1000F04D0B9F1100FA7
:103DC00050D0CC4605E0BBF1300F55D04FF00A097A
:103DD000CC4600290CBF6FF0004E4FF0004E00257E
:103DE000BEFBFCF328460CFB13EA05E029D00CFBD4
:103DF0000020012514F801BBABF13002092A05D9D6
:103E0000ABF14102192A0BD8ABF1370291450FDD16
:103E1000B5F1FF3FEED08342E8D24FF0FF35E9E73E
:103E2000ABF16102192A03D8ABF157029145EFDCDF
:103E30006B1C0BD001B140420FB14DBB3E60BDE8E1
:103E4000F88F9245D3DA4FF0FF35D3E72223C8F835
:103E50000030FFB1661E7046F0E7AC1C95F801B06B
:103E60000121A8E7BBF1300FABD1237803F0DF03CA
:103E7000582B06D0CC46ACE7237803F0DF03582B51
:103E80000AD14FF0100C94F801B0E1460234A0E7DB
:103E90008646DFE77046D2E74FF00809CC4698E740
:103EA00030B5084C084B25686C6B83B0002C08BFFC
:103EB0001C46009413460A4601462846FFF75EFF5B
:103EC00003B030BD0400002030040020F0B4DFF85F
:103ED00078C0174604460E46BCE80F008AB06D460F
:103EE0000FC5BCE80F000FC59CE80300BB1E45F8DA
:103EF000040B222B297023D8751E2846002200E0CF
:103F00001A46B4FBF7F10AAB07FB114423440C46F5
:103F100013F8283C00F8013F531C0029F0D1F1545C
:103F200052B1334413F8011D15F8010F2970013403
:103F3000111B8C421870F5DB30460AB0F0BC70479C
:103F400000203070F9E700BF885A000021B1FF2A35
:103F500004D80A7001207047084670478A2303601E
:103F60004FF0FF30704700BF024B13B1024800F022
:103F700005B8704700000000893F0000002301469B
:103F80001A46184601F086B838B50A4C0A4D641B2B
:103F9000A4100AD004F18043013B05EB8305013CEA
:103FA00055F804399847002CF9D1BDE8384001F0A4
:103FB0001FBD00BF00000000000000002DE9F0411F
:103FC00004694B119C422EDD00F1140C11F01F010D
:103FD00067460CEB84040CEB83052AD05CF82320A5
:103FE0002E1DB44222FA01F2C1F1200813D900F1CA
:103FF000100E336803FA08F313434EF8043F56F8E3
:10400000042BA64222FA01F2F3D3631B053B23F0F3
:10401000030304339C44CCF8002012B30CF10403D6
:10402000DA1B921018E00023036100234361BDE80E
:10403000F081AC42F7D900F110022B4653F8041B73
:1040400042F8041F9C42F9D8EA43224422F00302BA
:1040500004320CEB02039210BB420261E5D0BDE8D2
:10406000F0816346DA1B9210F6E700BF2DE9F04FAE
:104070008DB089460790189804920A9300F06EFB61
:104080000368059318461C46FCF75AFED9F8003021
:10409000039021189A7811F8011C0191302A40F000
:1040A000878103334FF000081C4613F8012B302A98
:1040B00008F10108F8D0BD4EB35C002B00F0F08091
:1040C00023784FF0000AF35C5546274623B117F8D2
:1040D000013FF35C002BFAD1039A0599384600F0B2
:1040E0008DFF002800F090803B78002D40F09080FC
:1040F000502B029500F09280702B00F08F803D468F
:10410000C9F80070BAF1000F40F0B7802B1B013BDB
:10411000072B514604DD5B10072B01F10101FADC8E
:10412000079800F021FB03461433AC420690089335
:1041300080F0AF819B46039B4FF00008C3F1010361
:10414000C146099311E0B8F1200F00F09F8042466C
:1041500008F1040815F8013CF35C554603F00F0321
:104160009340A54249EA030918D915F8013C019A80
:10417000934205F1FF3A0BF10407E4D1099B534444
:10418000A342E0D31846039A05990B9300F036FF3B
:104190000B9B0028D7D11D46A542E6D8089BCBF83B
:1041A0000090FF1A069BBF101F61484600F098FB65
:1041B000049B7F011E683F1AB74200F3D880C0F20B
:1041C0000E810025049B029A9B689342C0F23281C3
:1041D0000498029A4368934273DD9C1AA64200F346
:1041E000A480C268022A00F08B81032A00F0838138
:1041F000012A00F05E81DDE9061000F0DBFA169A74
:104200000023136050243DE0002D00F0DA803B785D
:10421000ED1BAA00502B02927FF46EAF7B782B2B04
:1042200000F0A3802D2B67D07A1C0025F35C591E6B
:1042300018293FF664AF5178715C481E1828A3F125
:10424000100302F101020BD812F8010F03EB8303F4
:1042500001EB4303315C481E1828A3F11003F3D986
:1042600005B15B4202993D46194417460291C9F8CF
:104270000070BAF1000F3FF449AFB8F1000F0CBF66
:104280000624002420460DB0BDE8F08F5B460022D6
:1042900043F8089BBB4691461F464FF0040859E778
:1042A000039D05992A46204600F0A8FE40B32278D7
:1042B0002746502A00F08080702A7DD0C9F800700F
:1042C000DBE7012465B1049BDB68022B00F0BB80B7
:1042D000032B00F0BC80012B00F0048144F010049B
:1042E000169B1A46069B13600A9B1A46029B136094
:1042F00020460DB0BDE8F08F0125BB78BA1C95E7CC
:10430000625DB35C6719002BD3D0302A3C4604D1E0
:1043100014F8013F302BFBD0F35CB3FA83FA3D462F
:104320004FEA5A1A4FF00108CFE6671E002D40F001
:10433000B880002F40F0B7807B11089A069852F899
:10434000232007F01F07012303FA07F7174221462E
:1043500018BF45F00205FFF731FE049B5B6802932E
:10436000361B0224002DBBD0ADE70025C5E7BF1BDF
:104370003946069800F018FE054678B17A1E5111AC
:10438000089802F01F0350F82110012505FA03F3E5
:104390000B4203D0AA4200F3B7800225029B069885
:1043A0003B4439460293FFF709FE0BE7B45B00007C
:1043B0009C1C4FF000087EE6002302934FF0010A98
:1043C0002CE703997B5CF25C7D182F46002A3FF4B2
:1043D0001FAF17F8013FF25C002AFAD118E7F71B6C
:1043E000069907983A4600F0CBFB029B0690DB1B30
:1043F00002930346143308930025E3E6069B9B686B
:104400009D4280F291802B46069800EB83020121A9
:104410000133022C036151617FD09D4234DA0121C6
:104420000698FFF7CBFD049B029A9B6801329342EA
:1044300002922CDADDE9061000F0BCF9169A00238E
:104440001360A3241EE7179BC3F101031793179B67
:10445000002B3FF443AF069BDDF820C01D69AF0081
:104460000CEB07006346002103E0984243F8041C6C
:10447000C4D99E4653F8042BB2F1FF3FF5D0013268
:10448000022CCEF8002048D016F01F0668D1212457
:1044900026E7069BDDF820B003F118074FF000096E
:1044A0007CE6012548E73946069800F07DFD054683
:1044B00042E7A6427FF49FAE012E08DD711E0698EA
:1044C00000F072FD00283FF496AE049B5B680A99E9
:1044D0000B60069B089901221A610A60169A6224F1
:1044E0001360CFE6AA077FF5F9AE089B1B681D4352
:1044F000EB07B0D4F2E6179A002A3FF47CAEE6E769
:10450000179A002AE3D076E6B91E069800F04CFD13
:1045100000283FF442AF032540E7049B1B68013BA2
:10452000B34227D02224DBE6069BDDF81C905968B5
:104530004846013100F018F906990B6902338046AC
:104540009A000C310C30FCF74FFB0699484600F0FE
:1045500031F9CDF8188008F1140CD8F8103053E771
:104560006744C6F1200657F8040C00F0B9F9B042D0
:104570008DDA54E7731106F01F065CF8232001233F
:10458000B340134214BF21242224A9E630B40468A6
:10459000013408E014F8013BA3F14105192D98BF3F
:1045A0002033934207D111F8012B002AF2D1046085
:1045B000012030BC7047002030BC70472DE9F04F1F
:1045C0000B68DFF894E1591102EB810985B013F013
:1045D0001F0318BF09F1040901900393002349F850
:1045E000043C98469A461C46019BCDF808901B68EF
:1045F0005F78A9F10406B4463146B3469146581C8B
:10460000DFB11EF80750002D40D1202F5BD8544554
:104610000EDD614502D2B8F1070F5EDD49454ED986
:104620000023A1F1040C41F8043CA24661469846DF
:1046300003465F78581C002FE3D14A465E46DDF8FA
:104640000890002C45D0614502D2B8F1070F70DD0B
:10465000914259D9134651F8040B43F8040B8E428A
:10466000F9D2002143F8041B9E42FBD259F8041CE6
:1046700021B145E056F8043D002B41D1B242F9D1B9
:1046800001230520136005B0BDE8F08F08F1010893
:10469000B8F1080F04F1010407DC0A68120105F003
:1046A0000F0515430D600346C3E74945C0D90023F4
:1046B00041F8043C1A4604394FF00108EFE74FF087
:1046C00008080346B5E7292F4A465E46DDF80890FC
:1046D00029D0042005B0BDE8F08FC8F108039B0085
:1046E0000A68C3F120080D466F6807FA08F61643FA
:1046F00027FA03F22E6045F8042FAC45F4D88DE775
:10470000052005B0BDE8F08F039B59F8041C002B71
:10471000AED0C3F120034FF0FF3020FA03F319406D
:1047200049F8041CA4E7019802330360002C8AD1E5
:10473000CFE7C8F108039B000D68C3F1200E0846BF
:10474000476807FA0EF42C4327FA03F5046040F893
:10475000045F8445F4D87BE7B45B0000F030704719
:10476000704700BF704700BFC36C70B505460C466C
:104770004BB153F8240080B1026843F82420002391
:10478000C0E9033370BD2122042100F0E3FC03469D
:10479000E8640028EDD1002070BD012101FA04F683
:1047A000721D2846920000F0D5FC0028F3D0C0E925
:1047B0000146E4E731B1C36C4A6853F8220008604F
:1047C00043F82210704700BFF0B50C6983B00D4666
:1047D000064601F1140C0027DCF8000081B202FB50
:1047E0000133010C180C02FB01019BB2013703EBF2
:1047F0000143BC424CF8043B4FEA1143ECDC3BB1B3
:10480000AA68A24207DD05EB8402013453612C61E2
:10481000284603B0F0BD6968019301313046FFF7C7
:10482000A3FF2A69023205F10C01074692000C3001
:10483000FCF7DAF9F26C6968019B52F821002860F4
:1048400042F821503D46DEE72DE9F843234C089D10
:104850001E46083384FB034CDB17C3EB6C0CBCF126
:10486000010F07460C46904635DD012300215B0011
:104870009C4501F10101FADC3846FFF775FF012381
:10488000B8F1090FC0E9043521DD04F109094D46ED
:10489000444415F8013B0146303B0A223846FFF7F5
:1048A00093FFAC42F5D109EB0804083C46450CDD0A
:1048B000A6EB0806264414F8013B0146303B0A22C9
:1048C0003846FFF781FFA642F5D1BDE8F8830A34E8
:1048D0004FF00908EAE70021CEE700BF398EE33840
:1048E000020C12040346C2B90304102013F07F4FD8
:1048F00004BF1B02083013F0704F04BF1B010430CB
:1049000013F0404F04BF9B000230002B04DB5B0020
:1049100001D501307047202070470020E6E700BF36
:10492000036813F00702014607D0DA071FD498077F
:104930001FD55B080B600120704798B2A0B11046EC
:1049400013F0FF0F04BF1B0A08301A0704BF1B092E
:1049500004309A0704BF9B080230DA0702D45B08D0
:104960000BD001300B6070471B0C1020E8E70020D3
:1049700070479B080B60022070472020704700BFE3
:1049800010B50C460121FFF7EFFE0122C0E9042417
:1049900010BD00BF2DE9F04F0E691469A64283B027
:1049A0000F46154604DA32462F4626460D46144673
:1049B000D7E9011306EB04084345B8BF0131FFF7FF
:1049C000D3FE00F1140909EB880EF145009005D2E1
:1049D0004B46002243F8042B9E45FBD805F1140AF0
:1049E0000AEB840407F11403A24503EB860C61D2A1
:1049F000641B153C24F00304CDF804E0A24405F147
:104A000010029E4605E02D0C2BD1924509F10409B8
:104A10004ED052F8045F1FFA85FBBBF1000FF2D0B5
:104A200077464E46002000E0264657F8041B3468BF
:104A30008BB2A5B2090C240C0BFB035303440BFBF4
:104A4000014000EB134034469BB243EA0043BC45AF
:104A50004FEA104044F8043BE6D8706015682D0C0E
:104A6000D3D0D9F8003076461846CB46002100E076
:104A7000A3463488000C05FB040001449BB25C464D
:104A800043EA014344F8043B56F8043BDBF80400D6
:104A90001B0C87B205FB037303EB1143B4454FEACC
:104AA0001341E5D89245CBF8043009F10409B0D19F
:104AB000DDF804E0B8F1000F0BDD5EF8043CAEF168
:104AC000040E1BB105E05EF8043D13B9B8F101080E
:104AD000F9D10098C0F8108003B0BDE8F08F00BF96
:104AE00012F003032DE9F041144607462ED10D467E
:104AF000A4101CD0BE6C96B3E3074FF0000806D498
:104B0000641014D03068A8B10646E307F8D53246E1
:104B100029463846FFF73EFFB5B16A68FB6C641062
:104B200053F82210296043F822500546EAD128465E
:104B3000BDE8F081324631463846FFF72BFF306042
:104B4000C0F800800646E0E70546D9E7013B0B4A7E
:104B500052F823200023FFF737FE0546C8E701215E
:104B60003846FFF701FE40F2712343610122002322
:104B700002610646B8640360BEE700BFA85D00009E
:104B80002DE9F04791460A690E464FEA6914D1E9CA
:104B9000011304EB020808F101059D42074604DDFC
:104BA0005B009D4201F10101FADC3846FFF7DCFDB4
:104BB000002C00F1140337DD03EB8401002243F8DD
:104BC000042B8B42FBD1346906F1140319F01F0941
:104BD00003EB840C20D0C9F1200E002200E05146E6
:104BE0001C688A4604FA09F414434AF8044B53F843
:104BF000042B634522FA0EF2F1D34A600AB108F1A0
:104C00000205FB6C7268013D53F8221005613160AA
:104C100043F82260BDE8F087043953F8042B41F8CB
:104C2000042F9C45F9D8ECE71946CCE730B40B6962
:104C300005460069C01A0FD19B0014351431194480
:104C40002B4401E09D4207D253F8044D51F8042D46
:104C50009442F7D002D3012030BC70474FF0FF30B0
:104C6000FAE700BF2DE9F04113690D69ED1A002D37
:104C70000E46904601F1140402F1140714D19B0072
:104C8000E2183B4401E0A24259D952F804CD53F84E
:104C9000041D8C45F7D009D2224633463C46464691
:104CA00017469846012501E0F6DB00257168FFF7FD
:104CB0005BFDD8F810303669C56007EB830EBC4643
:104CC00000F1140504EB860700235CF8041B54F87C
:104CD000048B8AB213FA88F3090C9A1AC1EB1843B1
:104CE00003EB224392B242EA0342E64545F8042B25
:104CF0004FEA2343E9D8A74217D9AE46A4465CF849
:104D0000042B13FA82F3191401EB12419BB243EA0C
:104D1000014267454EF8042B4FEA2143EFD8E443A4
:104D2000274427F0030704373D44043D22B955F8D2
:104D3000043D013E002BFAD00661BDE8F081002160
:104D4000FFF712FD01220023C0E90423BDE8F08132
:104D50000F4B0B40A3F15073002B02DD00201946CE
:104D600070475B421B15132B0BDD143B1E2BDDBF65
:104D7000C3F11F03012202FA03F3012300211846A5
:104D800070474FF40022002042FA03F1704700BF41
:104D90000000F07F2DE9F041066900F1140808EBEE
:104DA000860656F8047C3846FFF79AFDC0F12003CA
:104DB0000A280B60A6F1040219DC904538BF56F8AA
:104DC000082CC0F10B0327FA03F138BFDA4000F1D9
:104DD000150341F07F5528BF002207FA03F345F47D
:104DE000401543EA020420462946BDE8F08190457B
:104DF000A0F10B031CD256F8080CDBB19F4047F022
:104E00007F57C3F12001A6F1080220FA01FC47F404
:104E10004017904500FA03F047EA0C0503D256F814
:104E20000C3CCB401843044620462946BDE8F0819F
:104E300033B9184647F07F5545F440150446F3E76B
:104E400007FA03F343F07F55002045F4401504466C
:104E5000EAE700BF2DE9F041012182B01C469046EF
:104E6000DDE90865FFF780FC2346C4F30A540746D2
:104E7000C3F313030CB143F48013B8F100020193A0
:104E80001FD002A840F8082DFFF74AFD00282DD1B9
:104E9000DDE900237A61002B0CBF01210221BB61F7
:104EA0003961C4B907EB8103A0F232403060186960
:104EB000FFF716FDC0EB41102860384602B0BDE890
:104EC000F08101A8FFF72CFD019B7B6101212030BF
:104ED0003961002CE6D0A4F233430344C0F135001D
:104EE00033602860384602B0BDE8F081DDE9001388
:104EF000C0F1200203FA02F20A43C34001937A612F
:104F0000C9E700BF2DE9F04383B088466946814672
:104F1000FFF740FF04460D46404601A9FFF73AFF60
:104F20000F46DDE900130646D9F81020D8F8100026
:104F3000CB1A121A03EB4213002B0BDD05EB0359BE
:104F40004D4632463B4620462946FBF79FFC03B0C0
:104F5000BDE8F083C3EB033307EB03510F46F0E7E3
:104F600070B414694D1E02F1140303EB84016D113A
:104F700001358B4200EB85040CD2051F53F8046BFE
:104F800045F8046F9942F9D88B1A153B23F00303B7
:104F900004331844844204D9002340F8043B84427B
:104FA000FBD870BC704700BF036910B44C11A3421A
:104FB00000F114020FDA02EB83039A421CD253F879
:104FC000040C043B18B114E053F8041D89B99A424B
:104FD000FAD310BC704702EB8403EEDD11F01F0121
:104FE000EBD052F8244024FA01F000FA01F18C428F
:104FF000E3D0012010BC70470020EAE7002A41D02E
:1050000040EA010313F00303F0B425D1032A23D9A6
:1050100004680D68AC421FD1043A35D0A4F10135C3
:1050200025EA040414F0803F31D1071D0D1D0DE069
:1050300057F8043B0E68A3F10134B34224EA030499
:105040000AD1043A20D014F0803F1DD1032A29460A
:10505000384605F10405EBD803780C789C4202F140
:10506000FF320CD182B114B90EE06AB17BB110F8F5
:10507000013F11F8014FA34202F1FF32F5D0181B96
:10508000F0BC7047104670470020F0BC70471846CF
:10509000F6E700BF2DE9F8432B4D064628689846F1
:1050A0000F469146FFF75CFB284B1C68D4F848314B
:1050B000002B3DD05A681F2A0DDC02F1010C16BBF3
:1050C0000232C3F804C0286843F82270FFF74AFB95
:1050D0000020BDE8F8831E4B7BB34FF4C870AFF3DC
:1050E0000080034648B3D4F848210021C0E90021DC
:1050F0004FF0010CC4F848010A46C0F88811C0F806
:105100008C11002EDCD003EB82010124C1F88890C1
:10511000D3F8880194402043022EC3F88801C1F8D7
:105120000881CDD1D3F88C110C43C3F88C41C7E76B
:1051300004F5A673C4F84831BCE72868FFF712FBF2
:105140004FF0FF30C5E700BF9C050020105A00005B
:105150000000000010B502FB01F100F02FF804463A
:10516000D8B150F8042C22F00302043A242A1DD8A6
:10517000132A14D900231B2AC0E900331BD9242A7F
:10518000C0E902330ABFC0E9043300F1100200F1A4
:1051900018020023C2E900339360204610BD024686
:1051A0000023C2E900339360204610BD0021FDF7C3
:1051B000CFFD204610BD00F10802F1E72DE9F04FC8
:1051C00001F10B05162D83B0064623D8102900F2F5
:1051D000B98000F097FA102518230220C54F3B44F0
:1051E000A3F108025C68944200F06681636823F0D2
:1051F00003032344D4E902515A68E96042F00102F2
:105200008D6030465A6000F083FA0834204603B0BF
:10521000BDE8F08F35F0070500F19480A94200F257
:10522000918000F06FFAB5F5FC7FC0F083816B0AC6
:1052300000F08F80042B00F24681AB0903F13900A6
:1052400003F1380CC300AB4F3B44A3F108015C6889
:10525000A14206D10CE0002A80F21D81E468A1423F
:1052600006D0636823F003035A1B0F2AF3DD604660
:105270003C69DFF894C2644571D0636823F003038E
:105280005A1B0F2A00F34481002AC7E904CC80F29C
:105290002681B3F5007F80F06981DB08591C7A68AC
:1052A00057F83180C4F808804FF0010E9B100EFAB9
:1052B00003F307EBC10E1343AEF10802E2607B601B
:1052C00047F83140C8F80C408210012494409C42B9
:1052D0004BD81C4206D120F0030064001C4200F1B0
:1052E0000400FAD007EBC009CE468046DEF80C3049
:1052F0009E4507D122E1002A80F22981DB689E4584
:1053000000F01C81596821F003014A1B0F2AF2DDCD
:10531000D3E9028E5C1945F001055D6042F001059C
:10532000C8F80CE03046CEF80880C7E90444C4E968
:1053300002CC65605A50019300F0EAF9019B03F139
:10534000080463E700240C232046336003B0BDE863
:10535000F08F4FF4007340204FF03F0C73E77B68F1
:105360008210012494409C42B3D9BC68636823F046
:105370000309A94503D3A9EB05030F2B7BDC5E4B87
:10538000DFF888A11A68DAF80030013305EB02086B
:1053900000F0488108F5805808F10F0828F47F686C
:1053A00028F00F084146304600F0B8F9B0F1FF3F51
:1053B000834600F0048104EB0900584500F2FD80AB
:1053C0004E4A13684344136000F04D81DAF8001030
:1053D00001311BBFABEB00001B18CAF800B0136013
:1053E0001BF0070300F03481C3F10801C3F58053BB
:1053F0008B440833D844C8F30B08A3EB0808414694
:105400003046019200F08AF9431C019A00F046816F
:10541000A0EB0B01414441F001011368C7F808B04B
:105420004344BC42CBF80410136015D0B9F10F0F00
:1054300040F230816068A9F10C0121F0070100F011
:10544000010004EB010C08434FF0050E0F296060CA
:10545000CCE901EE00F23A81294A2A481168BC6879
:105460008B42016888BF136062688B4222F003029E
:1054700088BF0360A7E0621943F0010345F001050E
:1054800065603046BA60536000F042F90834204647
:1054900003B0BDE8F08F2344E1685A68A56842F084
:1054A0000102E96030468D605A6000F031F908343D
:1054B000204603B0BDE8F08FDC68A34208BF02308D
:1054C0003FF4D6AE92E6142B71D9542B00F2AD8086
:1054D0002B0B03F16F0003F16E0CC300B3E6234402
:1054E00030465A6842F001025A60083400F010F960
:1054F0008CE600BFA0050020080C0020D80B00207F
:10550000000C0020040C0020A8050020A8090020A1
:10551000611945F0010E42F00105C4F804E030467F
:10552000C7E90411C1E902CC4D60E25000F0F0F887
:1055300008346BE6E80805F108034FE608F10108B6
:1055400018F0030F0EF1080E7FF4D0AE52E01944AC
:105550001C464A68DB6854F8085F42F001024A6062
:105560003046EB609D6000F0D3F84FE65A0A042AFB
:1055700035D9142A6FD802F15C01C9005B3207EB00
:10558000010E7958AEF1080E8E4558D04A6822F0C7
:1055900003029A4202D989688E45F7D1D1F80CE00E
:1055A0007B68C4E9021ECEF80840CC608CE603F1AB
:1055B0005C0003F15B0CC30045E6BC4272D0BC68E2
:1055C000626822F003029542A2EB050302D80F2B7A
:1055D0003FF751AF304600F09BF8002416E69A09D9
:1055E00002F13901C9003832C9E7D9F8009099456C
:1055F00040F0838010F0030FA9F1080300F1FF30A1
:10560000F3D17B6823EA04037B6064009C423FF68D
:10561000ACAE1CB9A9E6640008F104081C42FAD03B
:1056200040465FE608F11008BCE6B3F5AA7F26D82D
:10563000EB0B03F1780003F1770CC30003E67B6802
:1056400092104FF0010808FA02F213437B60A8E7BA
:105650004FF48053CEE6542A29D81A0B02F16F0179
:10566000C9006E328BE7C0F30B0100297FF4AEAEA8
:1056700009EB0802B96842F001024A60ECE640F228
:10568000545293421CD8AB0C03F17D0003F17C0C07
:10569000C300D8E50123CBF804309BE701214FF08C
:1056A0000008BAE6164A1368434413608EE6B2F562
:1056B000AA7F14D8DA0B02F17801C90077325EE7CD
:1056C0004FF47E737F204FF07E0CBCE504F108019F
:1056D0003046019200F084F8019A1368BCE640F26B
:1056E00054518A4205D89A0C02F17D01C9007C32DE
:1056F00045E74FF47E717E2241E77B6885E700BF76
:10570000D80B00200148FFF72BB800BF3C0C00204D
:105710000148FFF727B800BF3C0C002038B5074C04
:10572000002305460846236000F04EF9431C00D0D4
:1057300038BD2368002BFBD02B6038BD500C0020F7
:10574000F8B5244F0C460646FFF7DCFFBB685D68E2
:10575000C4F57E610F3125F00305294421F47F61F2
:1057600021F00F01A1F58054B4F5805F07DB002123
:105770003046FFF7D3FFBB682B44984204D0304635
:10578000FFF7C6FF0020F8BD61423046FFF7C6FFB5
:1057900001300DD0104BBA6819682D1B45F001057A
:1057A0003046091B55601960FFF7B2FF0120F8BDB4
:1057B00000213046FFF7B2FFBA68831A0F2BDEDDF7
:1057C000064C0549246843F00103001B5360086040
:1057D000D5E700BFA0050020D80B0020A8090020B5
:1057E000002953D0F8B50C460646FFF78BFF54F856
:1057F00004CC714F2CF00101A4F108056B18B868B6
:105800005A68984222F0030253D01CF0010F5A60EC
:1058100003EB02003BD154F808CC4068A5EB0C0523
:1058200007F1080EAC687445614400F0010075D0C2
:10583000D5F80CC0C4F80CC0CCF8084060B341F0F7
:1058400001036B606950B1F5007F50D34B0A042B04
:1058500070D88B0903F13904E40003F138023819D8
:105860003B590838984278D05A6822F003028A429D
:1058700071D99B689842F7D1C368C5E902039D605E
:10588000C5603046BDE8F840FFF742BF704740684A
:1058900000F001000028D2D19868484C1144A04281
:1058A00041F0010262D0DB68C36098606A606950B1
:1058B000C9E71CF0010F0A4407D154F8083CED1A5F
:1058C0001A44D5E90213CB6099603D4B1B6842F046
:1058D000010193426960BD6004D83A4B30461968B3
:1058E000FFF72EFF3046BDE8F840FFF711BFC908AB
:1058F00078684A1C012389108B40034307EBC201DF
:1059000057F832007B600839C5E9020147F8325088
:10591000C5603046BDE8F840FFF7FABE002845D123
:105920000A44D3E9021342F00100CB609960686039
:10593000AA50D7E7142B08D9542B1ED80B0B03F110
:105940006F04E40003F16E0289E703F15C04E400F4
:1059500003F15B0283E718468EE793107968012212
:1059600002FA03F30B437B60034686E7C7E904555D
:10597000C5E902006A606950B4E7B3F5AA7F06D8AA
:10598000CB0B03F17804E40003F1770267E740F200
:105990005452934206D88B0C03F17D04E40003F1CA
:1059A0007C025CE74FF47E747E2258E741F00102EE
:1059B0006A60196096E700BFA0050020A8050020D6
:1059C000AC090020080C0020044A05491368002B8C
:1059D00008BF0B4618441060184670470C0C002096
:1059E000540C0020A5020000693F0000F8B500BF7C
:0459F000F8B500BF47
:1059F80000000000706F77000000000000003043D6
:105A080000000000000030C3080000204300000030
:105A1800504F5349580000002E0000006E660000E9
:105A2800696E697479000000616E0000350000003D
:105A3800CEFBFFFFCB0300000100000000000000C8
:105A480034000000CEFBFFFFCB0300000100000084
:105A58000000000000000000BC89D897B2D29C3C2E
:105A680033A7A8D523F649393DA7F444FD0FA5323D
:105A78009D978CCF08BA5B25436FAC6428066811E4
:105A880030313233343536373839616263646566AC
:105A98006768696A6B6C6D6E6F7071727374757616
:105AA8007778797A0000000000202020202020202C
:105AB80020202828282828202020202020202020B6
:105AC80020202020202020202088101010101010C6
:105AD8001010101010101010100404040404040412
:105AE80004040410101010101010414141414141AC
